:040000000C94E70471
:080008000C94E5050C94C20CF8
:04002C000C94B50C6F
:080034000C94AB0C0C948E0837
:14005400BF08D108E1081A092A093D094D0960097009F7093B
:14006800070A1A0A2A0A810A4142434445464748494A4B4C42
:14007C004D4E4F505152535455565758595A5F303132333486
:140090003536373839507772537570706C790000F000000093
:1400A4000000000000000000000000466F72467574557365C5
:1400B8000000F0000000000000000000000000000045434379
:1400CC0038315F4731317E0014FA0064000000000037006E1A
:1400E00000580245434338315F4732317E0014FA0064000085
:1400F40000000037006E00580245434338325F4731317E003E
:1401080055FA0069000000000016004D00AA004543433832E9
:14011C005F4732317E0055FA0069000000000016004D00AA83
:140130000045434338335F4731317E0014FA000C00000000E5
:140144000010007102E70345434338335F4732317E0014FA6F
:14015800000C000000000010007102E70345434338385F4739
:14016C0031313F000D5A009600000000007D001A004A0145BA
:14018000434338385F4732313F000D5A009600000000007DB3
:14019400001A004A01364E31505F5F4731313F0028FA004BDA
:1401A80000000000002D0000005E01364E31505F5F4732314A
:1401BC003F0028FA004B00000000002D0000005E01364E3241
:1401D000505F5F4731313F000FFA00170000000000150000F0
:1401E40000E703364E32505F5F4732313F000FFA0017000050
:1401F80000000015000000E703364E36505F5F4731313F0044
:14020C001478002C01000000006E001300C800364E36505F73
:140220005F4732313F001478002C01000000006E001300C880
:1402340000364E3330505F4731313F00165000900100000041
:1402480000B40000009600364E3330505F4732313F00165073
:14025C0000900100000000B4000000960036534C375F5F49A0
:1402700031323F0014FA001700000000001000B801BC0236F6
:14028400534C375F5F4932323F0014FA0017000000000010B1
:1402980000B801BC0236534E375F5F4931323F0050FA005A80
:1402AC0000000000001A004D00C80036534E375F5F49323296
:1402C0003F0050FA005A00000000001A004D00C8003641534E
:1402D400375F5F4931353F00C850004C0400000000000000CB
:1402E800000000364153375F5F4932353F00C850004C0400EC
:1402FC0000000000000000000036533139505F4830323F0063
:14031000965A00E80300000000000000000000454638365FA6
:140324005F4530313F0014FA001E008C003C001300E7037C14
:140338000136534A375F5F4430323F001EFA001E0064005019
:14034C00001100E7030000454C38345F5F4230323F0049FAC1
:1403600000E001FA00260271009001BE00365636535F5F41B2
:1403740030323F007DFA00C201FA00F4012900F40100003657
:140388004636535F5F4130323F00C81D017C011D01BC02199A
:14039C0000F4010000364C36475F5F4130333F008CFA00D062
:1403B00002FA00F4010000E1000000454C33345F5F4130350B
:1403C4003F0087FA00E8030901D2056E0096006E004B543652
:1403D800365F5F4130353F0096FA005203FA00BC023C00E17E
:1403EC000000004B5437375F5F4130353F0096FA00E803FAD8
:1404000000E8036900E60073004B5438385F5F4130353F0089
:1404140096FA007805FA00BC02730078005000365031505F6E
:140428005F4330323F007DFA00C201FA00BC022D00F4010069
:14043C0000454C39305F5F4630313F007DFA00C201FA00C218
:1404500001290008020000454C39355F5F4630313F005AFA6D
:1404640000F000FA00C20132002003AA0050434C3836544AED
:140478003132001E11E6000C000000000010006C02DE03503D
:14048C00434C3836504A3232001E39E6008601E6008A0269C2
:1404A00000C201E70345434C3836544A31323F0013FA000C00
:1404B400000000000010006C02DE0345434C3836504A323295
:1404C8003F0046FA006801FA0058026400E001E70345434CE1
:1404DC003832544A31323F00056400230000000000160000C0
:1404F00000BC0245434C3832504A32323F0073AA009A01AA5D
:14050400008A024B00A0005F0045434333355F4931323F0090
:1405180017FA00170000000000140000000000454343333560
:14052C005F4932323F0017FA00170000000000140000000034
:140540000045434334305F4A31323F0034FA003C00000000C3
:14055400001B000000000045434334305F4A32323F0034FACF
:14056800003C00000000001B000000000045434338355F474A
:14057C0031313F0017FA006400000000003B000000000045D5
:14059000434338355F4732313F0017FA006400000000003B6C
:1405A400000000000045434339315F4A31323F000964005501
:1405B800000000000035000000000045434339315F4A3232B8
:1405CC003F000964005500000000003500000000004543431A
:1405E00039395F4731327E00289600B400000000005F001726
:1405F40000DC0045434339395F4732327E00289600B40000E0
:140608000000005F001700DC004531383043434731327E0000
:14061C0013960055000000000040004800CC01453138304356
:14063000434732327E0013960055000000000040004800CCF8
:14064400014531383243434A31327E0014640068010000002F
:140658000096000000F0004531383243434A32327E001464FE
:14066C000068010000000096000000F00045434338303147E0
:1406800031317E0014FA006400000000003700000000004598
:1406940043433830314732317E0014FA006400000000003762
:1406A80000000000004543433830324731317E0055FA0069FA
:1406BC00000000000016004D00AA004543433830324732310E
:1406D0007E0055FA0069000000000016004D00AA0045434308
:1406E4003830334731317E0014FA000C0000000000100071A5
:1406F80002E7034543433830334732317E0014FA000C00005A
:14070C0000000010007102E7034543433833324731317E00DD
:1407200055FA0069000000000016004D00AA004543433833CA
:14073400324732317E0014FA000C000000000010007102E7D3
:140748000350434338345F473131001E0F5A00780000000051
:14075C00003C000000000050434338345F473231001E0F5A7B
:14077000007800000000003C000000000050434338355F47D8
:140784003131001E15C8006400000000003A00000000005016
:14079800434338355F473231001E15C8006400000000003AB8
:1407AC00000000000050434338385F473131001E0C5A0096D1
:1407C00000000000007D000000000050434338385F47323159
:1407D400001E0C5A009600000000007D0000000000365343AE
:1407E800375F5F4A31323F0014FA001400000000000D0000ED
:1407FC00000000365343375F5F4A32323F0014FA0014000019
:140810000000000D0000000000364E33505F5F4A31313F0017
:14082400149600520000000000380000000000364E33505F26
:140838005F4A32313F0014960052000000000038000000002D
:14084C0000364E35535F5F4931333F00C85A00B0040000000C
:1408600000000000000000364E35535F5F4932333F00C85AAB
:1408740000B00400000000000000000000364E37535F5F4AA6
:1408880031333F003C220123000000000010000000000036F1
:14089C004E37535F5F4A32333F003C22012300000000001032
:1408B0000000000000365332535F5F4130323F0050FA005AE2
:1408C40000000000001900000000002020000D0A002A204F17
:1408D80056455248454154205761726E696E67202A00205449
:1408EC003D00204B3D0020523D00533D000D0A5072657373B0
:14090000203C4553433E20746F20676574204C434420636F26
:1409140070790D0A4E7220547970652055685B565D20496891
:140928005B6D415D202D55675B565D2055615B565D20496190
:14093C005B6D415D205567325B565D204967325B6D415D209D
:14095000535B6D412F565D20525B6B5D204B5B562F565D00C2
:140964002020202020206D4120202020202020202020202091
:1409780000483D202020205620413D2020202047323D2020FC
:14098C002000202020202020202020202020204720202020D0
:1409A000205600546174757320202047756D6E790041646146
:1409B4006D202020546F6D61737A00565454657374657220A3
:0509C800312E31360064
:1409CE00CFE5D4E0CDBFDEBFC051D0400AEA08830024E0E6FA
:1409E200F0E011E0E736F10711F00192FBCF0083EDECF9E098
:1409F600A0E6B0E019E000E00BBFED3CF10721F0C8953196DE
:140A0A000D92F9CF0E947411FFCF0CB981E08093640120902E
:140A1E0064012220E1F708950CC0F80124902CB80F5F1F4F6F
:140A320081E080936401209064012220E1F7F80124902220B9
:140A460081F70895802F8F5F80935701209057012220E1F75D
:140A5A0008952224332430928F0020928E00309291002092B8
:140A6E009000309293002092920030929500209294003092EC
:140A8200970020929600309299002092980030929B002092CD
:140A96009A003092A3002092A2003092A5002092A40030927A
:140AAA00A7002092A60008950E94121F580180E080937E007F
:140ABE008093810084EC80937F0089E0809380002090F600EC
:140AD2003090F70044245524209180003091810000917E00F6
:140AE60010917F005A924A923A922A920E94D41E10937F00D6
:140AFA0000937E00309381002093800080E080937A00809360
:140B0E007D0080EA80937B008FE080937C0015014424552469
:140B220020917C0030917D0000917A0010917B005A924A9265
:140B36003A922A920E94D41E10937B0000937A0030937D0024
:140B4A0020937C00809080009090810060907E0070907F004A
:140B5E00601A710A820A930A70927F0060927E0090928100D1
:140B72008092800045ED52E060E070E0830194017A936A93C6
:140B86005A934A930E94421E10937F0000937E003093810018
:140B9A00209380002090F6003090F700442455245A924A920E
:140BAE003A922A920E94421E10937F0000937E003093810032
:140BC200209380000C94191F0A921A922A923A924A925A927C
:140BD6006A927A928A929A920A931A932A933A938A939A939D
:140BEA00AA93BA93EA93FA930FB60A920E94081F80E190E068
:140BFE002090FA003090FB008215930570F4809155018431CF
:140C120009F06AC280E19093FB008093FA00222420925801CC
:140C260061C28091FA009091FB008430E0E09E07C1F5809190
:140C3A0054018A3F41F5869913C080915901813009F5809135
:140C4E006700813311F08C31D9F480915A018F5F80935A0124
:140C620022242092590112C080915901813071F48091670061
:140C7600823311F08D3141F480915A01815080935A012224D0
:140C8A0020925901E6DE80915501843109F028C283E090E0B4
:140C9E009093FB008093FA0021C22090FA003090FB0022208D
:140CB20009F01AC2332009F017C220905D01222061F4222449
:140CC60020925F0183E680935E018AE591E0909361018093B5
:140CDA00600120905D0180E08215A0F4822D873088F42224E4
:140CEE0020925F0184E280935E018FE590E020905D013324BF
:140D0200280E391E309261012092600180915D01873061F49E
:140D1600222420925F0189E080935E0186E690E09093610135
:140D2A008093600180915D01883061F48BE180935F018DE178
:140D3E0080935E0187E690E0909361018093600180915D01EA
:140D5200893061F48CE180935F0184E280935E0188E690E0E9
:140D6600909361018093600180915D018A30E1F420905A0177
:140D7A00222019F44427552702C045E050E040935F01209035
:140D8E005A01222019F440EF50E002C04BEE50E040935E01EB
:140DA2008BE690E0909361018093600180915D018B3061F4E4
:140DB600222420925F0186E980935E0189E690E0909361018C
:140DCA008093600180915D018C3061F4222420925F018AEF50
:140DDE0080935E018AE690E0909361018093600180915D0147
:140DF2008D3001F520905A01222019F44427552702C04AE00D
:140E060050E05093FF004093FE0020905A01222019F44CE26D
:140E1A0051E002C042E251E05093FD004093FC008CE690E0EB
:140E2E00909301018093000180915D018E3091F42224332428
:140E42003092FF002092FE0080ED97E09093FD008093FC0018
:140E56008EE690E0909301018093000180915D018F3091F4B8
:140E6A00222433243092FF002092FE008CE291E09093FD0067
:140E7E008093FC0080E790E0909301018093000180915D01D2
:140E9200803191F4222433243092FF002092FE0080EA9FE01F
:140EA6009093FD008093FC0082E790E09093010180930001F7
:140EBA0080915D01813191F4222433243092FF002092FE0070
:140ECE0087EE93E09093FD008093FC0084E790E090930101F9
:140EE2008093000180915D01823191F4222433243092FF00E3
:140EF6002092FE0087EE93E09093FD008093FC0086E790E044
:140F0A00909301018093000180915D01833191F42224332455
:140F1E003092FF002092FE0087EE93E09093FD008093FC0037
:140F320088E790E09093010180930001869965C080915D01E0
:140F46008D30E8F4809154018A3F09F02FC020905E01E09167
:140F5A006001F09161013080321420F480818F5F808322C061
:140F6E0020905D012220F1F42224E0916001F091610120829D
:140F820017C0809154018A3F99F42090FC003090FD00E091EE
:140F96000001F0910101408051804214530430F45F01808100
:140FAA00918101969183808380915501843109F097C0209057
:140FBE005A012220B1F420905D01222021F4822D875F8093D0
:140FD2005D0180915D018D3019F48F5F80935D0180915D01A6
:140FE6008F3018F48F5F80935D0180915A01813508F478C077
:140FFA0080915D01833108F073C08F5F80935D016FC08091F6
:14100E005D018D3008F5809154018A3F09F033C020905F018B
:141022003324E0916001F091610140805524241435042CF4E4
:141036005F0180818150808322C020905D012220F1F483E6F1
:14104A00E0916001F0916101808317C0809154018A3F99F447
:14105E002090FE003090FF00E0910001F0910101408051808B
:141072002414350430F45F01808191810197918380838091A2
:141086005501843179F580E020905D01821550F520905A0188
:14109A00222081F480915D018A3061F4895080935D0122247D
:1410AE002092580180E190E09093FB008093FA0020905A011C
:1410C200222039F480915D018F3019F4815080935D0140915D
:1410D6005A01442311F0413528F080915D01815080935D0104
:1410EA000E940D1F09900FBEF991E991B991A99199918991F2
:1410FE00399129911991099199908990799069905990499010
:14111200399029901990099018950A921A922A923A924A92AC
:141126005A926A927A928A929A920A931A932A933A938A9388
:14113A009A93AA93BA93EA93FA930FB60A920E94121FA0907C
:14114E004901BB24C5018030E0E09E070CF4E3C38DE08A15D7
:141162009B050CF4DEC384E590E0F501EE0FFF1FE80FF91F3F
:1411760025903490F101099424B035B040908C0050908D00DB
:14118A00420C531C50928D0040928C0081E080934901C29AAD
:14119E0087B9C1C382E0809349012090EA003090EB0044B081
:1411B20055B04214530408F0C29887E087B9B1C324B035B051
:1411C6003092F5002092F4004090DE005090DF00420C531C8E
:1411DA005092DF004092DE0083E080934901C29A82E087B9D2
:1411EE0080E991E082159305D0F480E020904701821528F415
:14120200822D8150809347018CC3222433243092ED002092B0
:14121600EC003092EF002092EE0080914401816080934401F8
:14122A007CC382E08093470178C384E0809349012090EA001E
:14123E003090EB0044B055B04214530408F0C29887E087B952
:1412520068C324B035B04090E0005090E100420C531C509294
:14126600E1004092E00085E080934901C29A83E087B955C308
:14127A0086E0809349012090EA003090EB0044B055B0421409
:14128E00530408F0C29887E087B945C324B035B04090DA0091
:1412A2005090DB00420C531C5092DB004092DA0087E08093DD
:1412B6004901C29A84E087B932C388E0809349012090EA0086
:1412CA003090EB0044B055B04214530408F0C29887E087B9C6
:1412DE0022C324B035B03092F3002092F2004090D80050907D
:1412F200D900420C531C5092D9004092D80089E08093490127
:14130600C29A85E087B920905101222031F18091F200909148
:14131A00F3008C3FE3E09E07F0F080E020904601821528F4AF
:14132E00822D81508093460117C0222433243092E500209204
:14134200E4003092E9002092E8003BBC2ABC39BC28BC8091A7
:14135600440182608093440103C082E0809346012090E800ED
:14136A003090E90048B459B44214530428F488B599B50196D2
:14137E0099BD88BD2090E8003090E90048B459B42414350405
:1413920028F488B599B5019799BD88BD20905101222069F4CC
:1413A60086EB93E02090F2003090F3008215930520F481E056
:1413BA0080935101C09A2090440121FCAEC22090510122209A
:1413CE0009F4A9C28091F2009091F3008535E0E09E0708F075
:1413E200A0C2222420925101C0989BC28AE08093490120901F
:1413F600EA003090EB0044B055B04214530408F0C29887E0EF
:14140A0087B98BC224B035B04090D6005090D700420C531C6E
:14141E005092D7004092D6008BE080934901C29A86E087B98F
:1414320078C28CE0809349012090EA003090EB0044B055B065
:141446004214530408F0C29887E087B968C224B035B0309247
:14145A00F1002092F0004090D4005090D500420C531C5092F3
:14146E00D5004092D4008DE080934901C29A222427B8809193
:14148200F0009091F1008C3FE3E09E07C0F080E0209045011B
:14149600821528F4822D81508093450111C022243324309286
:1414AA00E5002092E4003BBC2ABC8091440184608093440144
:1414BE0003C082E0809345012090E4003090E5004AB45BB456
:1414D2004214530428F48AB59BB501969BBD8ABD2090E400E4
:1414E6003090E5004AB45BB42414350408F017C28AB59BB56F
:1414FA0001979BBD8ABD11C224B035B04090DC005090DD00B2
:14150E00420C531C5092DD004092DC002224209249012090AD
:14152200EA003090EB0044B055B04214530408F0C29887E0C1
:1415360087B9809142018F3309F0ECC120908C0030908D001C
:14154A0030928B0020928A002090DE003090DF003092D10044
:14155E002092D0002090E0003090E1003092D3002092D200AD
:141572002090DA003090DB003092CD002092CC002090D800AB
:141586003090D9003092CB002092CA002090D6003090D70092
:14159A003092C9002092C8002090D4003090D5003092C70096
:1415AE002092C6002090DC003090DD003092CF002092CE0077
:1415C200222433243092DD002092DC003092D5002092D4002E
:1415D6003092D7002092D6003092D9002092D8003092DB001E
:1415EA002092DA003092E1002092E0003092DF002092DE00FB
:1415FE0030928D0020928C00209242012090EE003090EF000A
:14161200222071F4332061F42090EC003090ED00222031F4C5
:14162600332021F42224209241014AC183B7806283BF2090F5
:14163A00EE003090EF00222019F4332009F4CDC02090D20051
:14164E003090D3004424552430928700209286005092890028
:14166200409288002090F6003090F7004424552420918800A3
:141676003091890000918600109187005A924A923A922A9287
:14168A000E94D41E10938700009386003093890020938800EE
:14169E008EE090E08A930E94601F1093870000938600309316
:1416B2008900209388002090D0003090D100442455243092AC
:1416C60083002092820050928500409284002090F600309036
:1416DA00F700442455242091840030918500009182001091F5
:1416EE0083005A924A923A922A920E94D41E109383000093C8
:1417020082003093850020938400180129011201442455249B
:141716003092830020928200509285004092840080908800F1
:14172A009090890060908600709087002614370448045904E7
:14173E0068F4621873088408950870928700609286009092FA
:1417520089008092880009C080E080938600809387008093F1
:141766008800809389004AE050E060E070E020918800309167
:14177A00890000918600109187007A936A935A934A930E941D
:14178E00421E1093870000938600309389002093880040904D
:1417A200EE005090EF000415150538F4809141018F3F18F4EA
:1417B6008F5F8093410120908600309087004090EE005090C1
:1417CA00EF004214530448F480E020904101821520F4822D87
:1417DE008150809341012090EC003090ED00222019F43320E6
:1417F20009F468C02090D0003090D100442455243092870083
:141806002092860050928900409288002090F6003090F70074
:14181A00442455242091880030918900009186001091870017
:14182E005A924A923A922A920E94D41E10938700009386007F
:1418420030938900209388008FE090E08A930E94601F10934B
:1418560087000093860030938900209388004090EC005090BB
:14186A00ED0004151505B0F440904101842D883060F080E279
:14187E0090E02090D0003090D1008215930540F4842D8F3FF3
:1418920028F4809141018F5F80934101209086003090870013
:1418A6004090EC005090ED004214530448F480E0209041016A
:1418BA00821520F4822D81508093410120904101222021F451
:1418CE0083B78F7D83BF03C083B7806283BF209041012CBE81
:1418E20080E098E220908A0030908B008215930528F4809137
:1418F600440188608093440180918A0090918B008030E3E29D
:14190A009E0758F480914401877F8093440105C0809142010B
:14191E008F5F809342010E94191F09900FBEF991E991B991E3
:14193200A99199918991399129911991099199908990799010
:14194600699059904990399029901990099018952A922FB6C0
:14195A002A9222242092640129902FBE299018958A938FB7F1
:14196E008A938CB18B3119F481E08093620189918FBF8991E9
:1419820018950A921A922A923A924A925A926A927A928A92E8
:141996009A920A931A932A933A938A939A93AA93BA93EA93EC
:1419AA00FA930FB60A920E94121F20905701222021F0822D5E
:1419BE0081508093570182990CC0809154018A3F20F48F5FC1
:1419D200809354014DC022242092550149C080915501843119
:1419E60020F48F5F8093550141C02090540184E18215C8F5C3
:1419FA00822D8A3FB0F581E020905A01821588F52090440147
:141A0E00222069F52090FA003090FB002220A1F4332091F410
:141A220020905D01222071F48091F8009091F90080599F4F11
:141A36009093FB008093FA0081E0809358010BD88091FA00B6
:141A4A009091FB008430E0E09E0759F480E790E09093FB0011
:141A5E008093FA0081E0809358010E942E0522242092540178
:141A7200809156018F5F809356018A3F08F47FC322242092A1
:141A8600560181E0809363018091F8009091F90080599F4F33
:141A9A002090FA003090FB002816390611F5209069002220F5
:141AAE0069F033243092EF002092EE00222420926A0033246A
:141AC2003092ED002092EC0020906A00222069F033243092F5
:141AD600ED002092EC0022242092690033243092EF00209256
:141AEA00EE008091FA009091FB008037E0E09E0781F4809131
:141AFE006700823311F08D3109F4C19A8091C2009091C300EA
:141B12000B979093EB008093EA008091FA009091FB00803635
:141B2600E0E09E0741F420906C0030906D003092E90020926B
:141B3A00E8008091FA009091FB008835E0E09E0741F4209081
:141B4E007000309071003092E5002092E4008091FA00909179
:141B6200FB008035E0E09E07F1F42090AC003090AD003092EA
:141B7600A9002092A80020905101222029F4A090B600B090D1
:141B8A00B70009C02091B6003091B7000AE010E00E94C41E8A
:141B9E005801B092B300A092B2008091FA009091FB008E3418
:141BB200E0E09E0749F48091C2009091C3000B969093EB0017
:141BC6008093EA008091FA009091FB008E33E0E09E0709F0C8
:141BDA0055C02090AC003090AD003092AB002092AA002090A0
:141BEE005101222029F4A090B600B090B70009C02091B60025
:141C02003091B7000AE010E00E94C41E5801B092B500A09276
:141C1600B4004090B2005090B3004A145B0451F112012501B9
:141C2A00421853085092B5004092B4002090AA003090AB000F
:141C3E004090A8005090A900421853085092A9004092A800D7
:141C52002090B4003090B5003092A7002092A60092010091C0
:141C6600A6001091A7000E94281E1093A7000093A60006C04B
:141C7A0087EE93E09093A7008093A6008091FA009091FB00C4
:141C8E008C33E0E09E0741F42090C2003090C3003092EB0047
:141CA2002092EA008091FA009091FB008C32E0E09E0749F40B
:141CB60080916C0090916D000A979093E9008093E800809156
:141CCA00FA009091FB008432E0E09E07F1F42090BC003090C4
:141CDE00BD003092BB002092BA0020905101222029F4A090BB
:141CF200B600B090B70009C02091B6003091B7000AE010E0AF
:141D06000E94C41E5801B092B500A092B4008091FA009091E3
:141D1A00FB008232E0E09E0749F480916C0090916D000A96B9
:141D2E009093E9008093E8008091FA009091FB008A31E0E0F8
:141D42009E0709F061C02090BC003090BD003092B9002092B8
:141D5600B80020905101222029F4A090B600B090B70009C0BA
:141D6A002091B6003091B7000AE010E00E94C41E5801B0928D
:141D7E00B300A092B2002090B4003090B500A214B304B1F1D2
:141D92002090BA003090BB004090B8005090B9004218530882
:141DA6005092B9004092B800920108EE13E00E94C41E109361
:141DBA00B9000093B8002090B4003090B5004090B2005090D6
:141DCE00B300421853085092B3004092B20018013092A50000
:141DE2002092A40092010091A4001091A5000E94281E1093FE
:141DF600A5000093A40006C087EE93E09093A5008093A400D0
:141E0A008091FA009091FB008831E0E09E0709F06EC02090A8
:141E1E006C0030906D003092E9002092E8002090A6003090BC
:141E3200A70044245524309287002092860050928900409256
:141E460088002090A4003090A500442455242091880030916C
:141E5A00890000918600109187005A924A923A922A920E94BA
:141E6E00D41E1093870000938600309389002093880045E07F
:141E820050E060E070E018012901240E351E461E571E309229
:141E960087002092860050928900409288004AE050E060E01A
:141EAA0070E0810192017A936A935A934A930E94421E109346
:141EBE00870000938600309389002093880047EE53E060E041
:141ED20070E018012901041715072607370728F43092A30046
:141EE6002092A20006C087EE93E09093A3008093A20080915A
:141EFA00FA009091FB008031E0E09E0709F057C02090C00028
:141F0E003090C1003092A1002092A0002090BE003090BF009C
:141F220030929F0020929E002090AC003090AD0030929D00D2
:141F360020929C002090BC003090BD0030929B0020929A00B7
:141F4A002090B6003090B700309299002092980020905101FF
:141F5E00209250012090B0003090B1003092970020929600FA
:141F72002090AE003090AF0030929500209294002090A6009B
:141F86003090A70030929300209292002090A4003090A5008E
:141F9A0030929100209290002090A2003090A30030928F0098
:141FAE0020928E0081E0809362018091FA009091FB008E3023
:141FC200E0E09E0779F4222433243092E5002092E4002090AF
:141FD6005A01222029F4222430927100209270008091FA0097
:141FEA009091FB008C30E0E09E0779F4222433243092E900F1
:141FFE002092E80020905A01222029F4222430926D002092A4
:142012006C008091FA009091FB008A30E0E09E0749F420901B
:14202600C4003090C5003092EB002092EA00C1988091FA00B0
:14203A009091FB008830E0E09E0739F420905801222019F0D8
:14204E0085B5806185BD8091FA009091FB008730E0E09E07DE
:14206200D1F4209044012220B1F085B58F7E85BD22243324A7
:142076003092ED002092EC003092EF002092EE0020905A01AD
:14208A00222029F4222420926A00209269008091FA0090913A
:14209E00FB008630E0E09E0739F420905801222019F085B55D
:1420B200806185BD8091FA009091FB008530E0E09E0719F4A9
:1420C60085B58F7E85BD8091FA009091FB008330E0E09E073E
:1420DA0099F4222433243092ED002092EC003092EF00209218
:1420EE00EE0020905A01222029F4222420926A002092690009
:142102008091FA009091FB008130E0E09E0729F42224209277
:1421160044010E942E05809148018F5F8093480183708093F1
:14212A004801823039F4809154018A3F19F4222420924801FC
:14213E008091FA009091FB008430E0E09E0759F420905801F7
:142152002220A9F483E090E09093FB008093FA000EC020901E
:14216600FA003090FB00222011F4332031F0C1010197909378
:14217A00FB008093FA000E94191F09900FBEF991E991B991BB
:14218E00A991999189913991299119910991999089907990AC
:1421A20069905990499039902990199009901895AA924A93E4
:1421B600422FA02E01E00E942505AA2011F0AA9A01C0AA9817
:1421CA0085B38F7085BB842F807F25B2282A25BAAB9A00C0CB
:1421DE0000C000C000C0AB9885B38F7085BB842F8F7082952A
:1421F200807F25B2282A25BAAB9A00C000C000C000C0AB984A
:142206004991A9900895AA92CA92C22EA02E12E00C2D0E94F1
:14221A00AC1E80E4102F082F0103202D1C2D169504E10103DE
:14222E00200D2A0D20680027BDDFC990A99008950E94081FF5
:14224200A22E402F413039F420904801222019F440E250E011
:1422560002C04A2D5527242F01E0A8DF0C940D1F0E94081F6F
:14226A00A901A02E06C0FA0124910A2DE3DF4F5F5F4FFA0122
:14227E0024902220B1F70C940D1F0E94081FA901A02E06C0DB
:14229200FA0120810A2DD2DF4F5F5F4FFA0120802220B1F7D3
:1422A6000C940D1F0E94121F5801442716C02AE030E085014B
:1422BA000E94261E602F2AE030E085010E94281E58018AE44C
:1422CE0091E0E42FFF27E80FF91F862F805D80834395443062
:1422E20040F30C94191F229722242ABA2BBA8FE087BB80EFF5
:1422F60088BB8CEF84BB83E085BB82EB81BB8FE482BB80E873
:14230A0088B98CE885BD8AEF83BD89E483BF80EA8FBD81E148
:14231E008EBD87E087B98FEF86B987E689B988ED8AB986E827
:1423320080BD88E081BD8EE081BDA89588E085BF80E889BF6F
:142346008ABF8DEF91E09093F7008093F6009C010DE310E0AD
:14235A000E94C41E24E630E00E94281E17BD06BD00EF10E073
:14236E000E9459051093C3000093C2001093C5000093C400E1
:142382001093EB000093EA0080EF80936B0083E680935E0174
:142396008AE591E0909361018093600181E090E09983888362
:1423AA002AE531E000E010E00E949B1F81E087B978940EE137
:1423BE000E94250528E20027F5DE26E00027F2DE2CE000270B
:1423D200EFDE21E00027ECDE20E40027E9DE222704E013DF27
:1423E6002FEB39E000273CDF22E004E00CDF21EB39E0002751
:1423FA0035DF23E004E005DF23EA39E000272EDF222420929E
:14240E00650113C0A89580916501833119F485B5806185BDAF
:1424220004E60E94250585B58F7E85BD809165018F5F8093EF
:14243600650180916501843148F322270027E3DE2EE839E065
:14244A0000270CDF21E00027DCDE29E739E0002705DF22E054
:14245E000027D5DE24E639E00027FEDE09EF18E00E941305C0
:142472000C94221EA89580916301813009F08BC122242092D6
:14248600630122270027BFDE22E031E020905D01222061F419
:14249A008091FA009091FB008430E0E09E0721F081E090E00C
:1424AE005C0102C0AA24BB240A2DE7DE222703E0A6DE22245C
:1424C200209265012DC085E091E0E0916501FF27E80FF91F1F
:1424D60020812090650180915D018150821589F0822D873085
:1424EA0091F48091FA009091FB008430E0E09E0751F48091C3
:1424FE000C01813311F0823321F481E090E05C0102C0AA2480
:14251200BB240A2D93DE809165018F5F8093650180916501D9
:14252600893078F222270EE06EDE2DE280915D018A3021F4AE
:14253A0081E090E05C0102C0AA24BB240A2D7ADE29E131E046
:14254E0080915D018A3021F481E090E05C0102C0AA24BB249E
:142562000A2D91DE21E002E050DE2FE031E080915D018B3064
:1425760021F481E090E05C0102C0AA24BB240A2D80DE22E008
:14258A0000273FDE80E280934301809144018170813019F43B
:14259E0088E480934301809144018270823019F481E48093E7
:1425B2004301809144018470843019F487E4809343018091F3
:1425C60044018870883019F484E58093430120914301002723
:1425DA0031DE22E002E015DE24E131E080915D018C3021F4B1
:1425EE0081E090E05C0102C0AA24BB240A2D45DE21E00AE0F7
:1426020004DE2EE131E080915D018D3021F481E090E05C0153
:1426160002C0AA24BB240A2D34DE22E009E0F3DD22E231E028
:14262A0080915D018E3021F481E090E05C0102C0AA24BB24BD
:14263E000A2D23DE21E001E1E2DD28E231E080915D018F3065
:1426520021F481E090E05C0102C0AA24BB240A2D12DE22E099
:142666000FE0D1DD2CE231E080915D01803121F481E090E09E
:14267A005C0102C0AA24BB240A2D01DE23E00027C0DD81E042
:14268E0020905A01821508F07CC023E00027B7DD26EF38E077
:1426A2000027E0DD22E331E080915D01813121F481E090E023
:1426B6005C0102C0AA24BB240A2DE3DD23E006E0A2DD22EFD4
:1426CA0038E00027CBDD27E331E080915D01823121F481E062
:1426DE0090E05C0102C0AA24BB240A2DCEDD23E00DE08DDD70
:1426F20084E090E02090FA003090FB008215930520F4809147
:1427060054018A3F99F42EEE38E00027A9DD2CE331E0809102
:14271A005D01833121F481E090E05C0102C0AA24BB240A2DB0
:14272E00ACDD33C02AEE38E0002796DD0091FA001091FB002A
:142742001695079516950795AFDD80914C01803341F0282FD0
:14275600002772DD20914B0100276EDD0EC020E200276ADD4C
:14276A0080914B01803321F0282F002763DD03C020E2002790
:14277E005FDD20914A0100275BDD23E7002758DD04C025ED74
:1427920038E0002767DD80E88BBF209044012220B1F0A090F6
:1427A600FA00B090FB00AA2011F4BB2029F080E190E08A15B7
:1427BA009B0548F481E08093580180E190E09093FB00809360
:1427CE00FA0020905D01222009F08DC000915A01112764DD02
:1427E20020904B012092020120904A012092030180915A0115
:1427F600813508F03AC0182F0AE10103100185E990E0280ECC
:14280A00391E80E690E011279A938A933A922A920E946C1F56
:14281E002090680080EF829DC00180509D429093F900809361
:14283200F80022242092650115C0A090650180E690E0EA2DE4
:14284600FF27E80FF91F208085E091E0EA2DFF27E80FF91F87
:14285A002082809165018F5F8093650180916501893038F38F
:14286E003FC08AE190E09983888320E630E010915A010AE158
:142882000103800188EC97EF080F191F0E949B1F2090680000
:1428960080EF829DC001805599419093F9008093F8002224C3
:1428AA00209265011BC0A090650180E690E0EA2DFF27E80F87
:1428BE00F91FE081FF2780E790E0E80FF91F249085E091E0F7
:1428D200EA2DFF27E80FF91F2082809165018F5F8093650126
:1428E60080916501893008F381E080935901A0905D0180E0F7
:1428FA008A1508F06FC08A2D8A3008F06BC08091520181305B
:14290E0089F489E090E09983888320E630E010915A010AE13B
:142922000103800188EC97EF080F191F0E949B1F222420927F
:1429360065011BC0A090650180E690E0EA2DFF27E80FF91F94
:14294A00E081FF2780E790E0E80FF91F249085E091E0EA2D6B
:14295E00FF27E80FF91F2082809165018F5F8093650180919F
:142972006501893008F3222420925201809154018A3F19F4B0
:1429860081E08093530180915501843141F58091530181300D
:14299A0021F581E090E099838883A0905D018FE590E02A2D52
:1429AE003327280F391F10915A010AE10103100188EC97EF36
:1429C200280E391E0A2D112701501040020D131D0E94BE1FA6
:1429D60022242092530103C081E08093520100916B001127E3
:1429EA000E9459055801B092C300A092C2002090CE00309049
:1429FE00CF004424552430927B0020927A0050927D0040927B
:142A12007C0040907C0050907D0020907A0030907B0045EDF4
:142A260052E060E070E05A924A923A922A928A019B010E94C1
:142A3A00D41E10937B0000937A0030937D0020937C0080E09C
:142A4E0080937E0080937F0081E78093800082E08093810060
:142A620018012901809080009090810060907E0070907F00FF
:142A7600061517052805390568F4601A710A820A930A70922E
:142A8A007F0060927E00909281008092800009C080E08093D8
:142A9E007E0080937F008093800080938100409080005090BD
:142AB200810020907E0030907F0012014424552430927F00ED
:142AC60020927E0050928100409280002090F6003090F700BA
:142ADA0044245524209180003091810000917E0010917F0065
:142AEE005A924A923A922A920E94D41E10937F0000937E00BD
:142B0200309381002093800048EE53E060E070E07A936A9345
:142B16005A934A930E94421E10937F0000937E003093810068
:142B2A002093800018013092AD002092AC008091FA00909152
:142B3E00FB008430E0E09E0771F420909C0030909D004424F9
:142B5200552430927F0020927E005092810040928000A090A0
:142B66005D01AA2021F08A2D8A3009F044C0809154018A3F85
:142B7A0081F420906B0033244424552430927F0020927E000E
:142B8E00509281004092800081E0809353018091550184319A
:142BA20061F580915D018A3041F580915301813021F52224F8
:142BB6002092530120905A01222041F42090C2003090C3008E
:142BCA003092EB002092EA0080915A01813588F081E090E043
:142BDE00998388832BE630E010915A010AE10103800183EDBF
:142BF20097EF080F191F0E94BE1F00917E0010917F0052DB1F
:142C060080914C01803319F0A82EBB2403C080E290E05C01F9
:142C1A00A092190120904B0120921A018EE280931B01209042
:142C2E004A0120921C012090D2003090D300442455243092C0
:142C42007F0020927E0050928100409280002090F6003090B4
:142C5600F70044245524209180003091810000917E0010916F
:142C6A007F005A924A923A922A920E94D41E10937F0000933E
:142C7E007E0030938100209380008EE090E08A930E94601F31
:142C920010937F0000937E0030938100209380002090D00004
:142CA6003090D1004424552430927B0020927A0050927D00E0
:142CBA0040927C002090F6003090F7004424552420917C004D
:142CCE0030917D0000917A0010917B005A924A923A922A923D
:142CE2000E94D41E10937B0000937A0030937D0020937C00B0
:142CF6001801290112014424552430927B0020927A00509248
:142D0A007D0040927C00809080009090810060907E0070904B
:142D1E007F00261437044804590468F462187308840895088A
:142D320070927F0060927E00909281008092800009C080E03E
:142D460080937E0080937F0080938000809381004AE050E0D5
:142D5A0060E070E0209180003091810000917E0010917F0033
:142D6E007A936A935A934A930E94421E10937F0000937E0048
:142D8200309381002093800018013092C1002092C0008091A7
:142D9600FA009091FB008430E0E09E0771F42090A000309085
:142DAA00A1004424552430927F0020927E00509281004092ED
:142DBE008000A0905D01AA2021F08A2D8B3009F04BC0809191
:142DD20054018A3F81F42090690033244424552430927F00C8
:142DE60020927E00509281004092800081E08093530180911B
:142DFA005501843199F580915D018B3079F58091530181307E
:142E0E0059F522242092530120905A01222079F42090690043
:142E220033243092EF002092EE00222420926A003324309279
:142E3600ED002092EC0080915A01813588F081E090E0998376
:142E4A00888329E630E010915A010AE10103800181ED97EFEA
:142E5E00080F191F0E94BE1F00917E0010917F001DDA80915B
:142E72004C01803319F0A82EBB2403C080E290E05C01A0926A
:142E86000F0120904B01209210018EE28093110120904A01D9
:142E9A00209212012090D0003090D1004424552430927F002C
:142EAE0020927E0050928100409280002090F6003090F700CE
:142EC20044245524209180003091810000917E0010917F0079
:142ED6005A924A923A922A920E94D41E10937F0000937E00D1
:142EEA0030938100209380008FE090E08A930E94601F10939D
:142EFE007F0000937E00309381002093800018013092BF001F
:142F12002092BE008091FA009091FB008430E0E09E0771F496
:142F260020909E0030909F004424552430927F0020927E0098
:142F3A005092810040928000A0905D01AA2021F08A2D8C30F2
:142F4E0009F04BC0809154018A3F81F420906A0033244424EE
:142F6200552430927F0020927E00509281004092800081E05B
:142F76008093530180915501843199F580915D018C3079F59D
:142F8A0080915301813059F522242092530120905A01222036
:142F9E0079F420906A0033243092ED002092EC0022242092FC
:142FB200690033243092EF002092EE0080915A01813588F060
:142FC60081E090E0998388832AE630E010915A010AE10103F4
:142FDA00800182ED97EF080F191F0E94BE1F00917E001091EF
:142FEE007F005CD980914C01803361F0282E209214012090EC
:143002004B012092150120904A01209216011EC080E280938F
:14301600140180914B01803341F0282E2092150120904A0137
:14302A00209216010FC080E28093150180914A01803319F057
:14303E00A82EBB2403C080E290E05C01A092160180E3809318
:1430520017012090CC003090CD004424552430927F00209275
:143066007E0050928100409280002090F6003090F70044245E
:14307A005524209180003091810000917E0010917F005A923B
:14308E004A923A922A920E94D41E10937F0000937E00309340
:1430A2008100209380004CEA53EA61E070E07A936A935A936B
:1430B6004A930E94421E10937F0000937E00309381002093FD
:1430CA00800018013092BD002092BC008091FA009091FB0045
:1430DE008430E0E09E0771F420909A0030909B0044245524DA
:1430F20030927F0020927E005092810040928000A0905D0116
:14310600AA2021F08A2D8D3009F045C0809154018A3F89F4BC
:14311A0020906C0030906D004424552430927F0020927E0006
:14312E00509281004092800081E080935301809155018431F4
:1431420061F580915D018D3041F580915301813021F522244F
:143156002092530120905A01222041F420906C0030906D0094
:14316A003092E9002092E80080915A01813588F082E090E0A0
:14317E00998388832CE630E010915A010AE10103800184ED17
:1431920097EF080F191F0E94BE1F00917E0010917F0082D84C
:1431A60080914C01803341F0282E20921E0120904B012092FE
:1431BA001F010FC080E280931E0180914B01803319F0A82E8F
:1431CE00BB2403C080E290E05C01A0921F0120904A0120921D
:1431E20020012090CA003090CB004424552430927F002092DF
:1431F6007E0050928100409280002090F6003090F7004424CD
:14320A005524209180003091810000917E0010917F005A92A9
:14321E004A923A922A920E94D41E10937F0000937E003093AE
:143232008100209380008EE090E08A930E94601F10937F0096
:1432460000937E0030938100209380002090CC003090CD00E3
:14325A004424552430927B0020927A0050927D0040927C0069
:14326E002090F6003090F7004424552420917C0030917D00A3
:1432820000917A0010917B005A924A923A922A920E94D41E2D
:1432960010937B0000937A0030937D0020937C002090510188
:1432AA002220A1F44AE050E060E070E03A932A931A930A937B
:1432BE008A019B010E94D41E10937B0000937A0030937D00D6
:1432D20020937C0048EA5AEA62E470E020917C0030917D0042
:1432E60000917A0010917B007A936A935A934A930E94421ED7
:1432FA0010937B0000937A0030937D0020937C0018012901E3
:14330E00809080009090810060907E0070907F000615170556
:143322002805390568F4601A710A820A930A70927F0060923F
:143336007E00909281008092800009C080E080937E00809303
:14334A007F00809380008093810020907E0030907F0030929A
:14335E00B7002092B6008091FA009091FB008430E0E09E07FC
:1433720071F420909800309099004424552430927F0020926D
:143386007E005092810040928000222420924F01A0905D012A
:14339A00AA2019F08A2D8E30D9F5809154018A3F99F420909D
:1433AE006E0030906F004424552430927F0020927E0050923A
:1433C20081004092800081E080934F01809353018091550192
:1433D600843101F580915D018E30E1F4809153018130C1F46B
:1433EA0022242092530180915A01813588F082E090E09983FB
:1433FE0088832EE630E010915A010AE10103800186ED97EF27
:14341200080F191F0E94BE1F00917E0010917F000E945511A1
:1434260020904F012220A1F58091FA009091FB008430E0E01F
:14343A009E0721F020905101222061F08091FA009091FB000C
:14344E008430E0E09E0701F5209050012220E1F480914D01E4
:14346200803319F0A82EBB2403C080E290E05C01A09222019E
:1434760020904C01209223018EE28093240120904B01209219
:14348A00250120904A012092260126C080914D01803341F00B
:14349E00282E2092220120904C01209223010FC080E28093D8
:1434B200220180914C01803319F0A82EBB2403C080E290E07F
:1434C6005C01A092230120904B01209224018EE280932501C3
:1434DA0020904A01209226012090C8003090C9004424552428
:1434EE0030927F0020927E0050928100409280002090F600FE
:143502003090F70044245524209180003091810000917E009B
:1435160010917F005A924A923A922A920E94D41E10937F007B
:14352A0000937E0030938100209380004CEA53EA61E070E001
:14353E007A936A935A934A930E94421E10937F0000937E0070
:14355200309381002093800018013092B1002092B0008091EF
:14356600FA009091FB008430E0E09E0771F4209096003090B7
:14357A0097004424552430927F0020927E005092810040921F
:14358E008000A0905D01AA2021F08A2D8F3009F045C08091BB
:1435A20054018A3F89F4209070003090710044245524309286
:1435B6007F0020927E00509281004092800081E080935301D5
:1435CA0080915501843161F580915D018F3041F580915301B2
:1435DE00813021F522242092530120905A01222041F4209094
:1435F2007000309071003092E5002092E40080915A018135C5
:1436060088F082E090E09983888320E730E010915A010AE141
:14361A000103800188ED97EF080F191F0E94BE1F00917E003F
:14362E0010917F000E94551180914C01803341F0282E209216
:14364200280120904B01209229010FC080E2809328018091F5
:143656004B01803319F0A82EBB2403C080E290E05C01A0927F
:14366A00290120904A0120922A012090C6003090C7004424E5
:14367E00552430927F0020927E0050928100409280002090E9
:14369200F6003090F700442455242091800030918100009192
:1436A6007E0010917F005A924A923A922A920E94D41E1093EB
:1436BA007F0000937E0030938100209380008DE090E08A93FB
:1436CE000E94601F10937F0000937E0030938100209380001D
:1436E2002090C8003090C9004424552430927B0020927A0089
:1436F60050927D0040927C002090F6003090F70044245524D5
:14370A0020917C0030917D0000917A0010917B005A924A9251
:14371E003A922A920E94D41E10937B0000937A0030937D0010
:1437320020937C004AE050E060E070E03A932A931A930A9396
:143746008A019B010E94D41E10937B0000937A0030937D0049
:14375A0020937C0048EA5AEA62E470E07A936A935A934A934C
:14376E000E94421E10937B0000937A0030937D0020937C00AB
:1437820018012901809080009090810060907E0070907F00D2
:14379600061517052805390568F4601A710A820A930A709201
:1437AA007F0060927E00909281008092800009C080E08093AB
:1437BE007E0080937F00809380008093810020907E003090D2
:1437D2007F003092AF002092AE008091FA009091FB008430B8
:1437E600E0E09E0771F42090940030909500442455243092C9
:1437FA007F0020927E005092810040928000A0905D01AA20FF
:14380E0019F08A2D8031C9F5809154018A3F89F420907200A9
:14382200309073004424552430927F0020927E0050928100AA
:143836004092800081E08093530180915501843101F5809141
:14384A005D018031E1F4809153018130C1F42224209253016F
:14385E0080915A01813588F082E090E09983888322E730E0AA
:1438720010915A010AE1010380018AED97EF080F191F0E94E8
:14388600BE1F00917E0010917F000E94551180914D01803308
:14389A0019F0A82EBB2403C080E290E05C01A0922C0120905B
:1438AE004C0120922D018EE280932E0120904B0120922F0149
:1438C20020904A01209230012090A6003090A7004424552476
:1438D60030927F0020927E0050928100409280008091FA00AD
:1438EA009091FB008430E0E09E0771F420909200309093009B
:1438FE004424552430927F0020927E005092810040928000AF
:14391200A0905D01AA2019F08A2D8131C9F5809154018A3FEA
:1439260089F420907400309075004424552430927F002092E3
:14393A007E00509281004092800081E0809353018091550117
:14394E00843101F580915D018131E1F4809153018130C1F4F9
:1439620022242092530180915A01813588F082E090E099837D
:14397600888324E730E010915A010AE1010380018CED97EFAC
:14398A00080F191F0E94BE1F00917E0010917F000E94551124
:14399E0080914C01803319F0A82EBB2403C080E290E05C0154
:1439B200A092320120904B01209233018EE280933401209052
:1439C6004A01209235012090A4003090A5004424552430925E
:1439DA007F0020927E0050928100409280008091FA00909149
:1439EE00FB008430E0E09E0771F42090900030909100442453
:143A0200552430927F0020927E005092810040928000A090E1
:143A16005D01AA2019F08A2D8231C9F5809154018A3F89F497
:143A2A0020907600309077004424552430927F0020927E00D9
:143A3E00509281004092800081E080935301809155018431DB
:143A520001F580915D018231E1F4809153018130C1F4222462
:143A66002092530180915A01813588F082E090E099838883B3
:143A7A0026E730E010915A010AE1010380018EED97EF080F97
:143A8E00191F0E94BE1F00917E0010917F000E945511809125
:143AA2004C01803319F0A82EBB2403C080E290E05C01A0922E
:143AB600370120904B01209238018EE28093390120904A0125
:143ACA0020923A012090A2003090A3004424552430927F0024
:143ADE0020927E0050928100409280008091FA009091FB00C8
:143AF2008430E0E09E0771F420908E0030908F0044245524D4
:143B060030927F0020927E005092810040928000A0905D01F7
:143B1A00AA2019F08A2D8331C9F5809154018A3F89F420903F
:143B2E007800309079004424552430927F0020927E0050929E
:143B420081004092800081E08093530180915501843101F5C2
:143B560080915D018331E1F4809153018130C1F422242092A0
:143B6A00530180915A01813588F082E090E09983888328E751
:143B7E0030E010915A010AE10103800180EE97EF080F191F74
:143B92000E94BE1F00917E0010917F000E94551180914C010B
:143BA600803319F0A82EBB2403C080E290E05C01A0923C0139
:143BBA0020904B0120923D018EE280933E0120904A0120929C
:143BCE003F0120906201222009F435C081E090E09983888364
:143BE2002AE531E000E010E00E94BE1F02ED18E00E941305BF
:143BF6002224209265011CC082E091E0E0916501FF27E80FBA
:143C0A00F91F2080222049F0E0916501FF27E80FF91F0081E6
:143C1E000E940A0504C00FEC18E00E941305809165018F5F0B
:143C320080936501809165018E3300F32224209262010C94DF
:143C46003B1222960895689401C0E894EA92FA928A93EE2458
:143C5A00FF2480E1000F111FEE1CFF1CE216F30618F0E21A79
:143C6E00F30A03958A95A1F716F40E2D1F2D8991F990E99049
:143C82000895E89401C0689430D0CC2409C0E89401C0689466
:143C96002AD037FD0E94321FB7FD52D0772488249924AA2451
:143CAA00BB2442D0C1F045D0B1F0E8E2000F111F221F331F12
:143CBE00771C881C991CAA1CBB1C88169906AA06BB0628F0A3
:143CD200881A990AAA0ABB0A0395EA9559F726F4082D192D24
:143CE6002A2D3B2D13C07A928A929A92AA92BA92CA92EA9383
:143CFA008A939A93AA93BA938B859C85AD85BE85C32E0EF04D
:143D0E00CB260895C7FC0E94321FB991A99199918991E9911B
:143D2200C990B990A99099908990799024960895E02FE12BF5
:143D3600E22BE32B0895E82FE92BEA2BEB2B08958095909594
:143D4A00A095B0958F5F9F4FAF4FBF4F0895689401C0E8942D
:143D5E002A93FA92EA92FF24EE2420E1000FFF1CEE1CE1162B
:143D720010F0E11A03952A95B9F70EF40E2DE990F990299142
:143D860008950A921A928A939A93029FC001129F900D039FA8
:143D9A00900D8C01999189911990099008950E943B1F7A92C0
:143DAE000E94541F59F177240E945A1F19F48C019D0124C0D0
:143DC2000A921A92089FB02CA12C289F902C812C189FA00CC2
:143DD600911C871C099FA00C911C871C199F900C811C0A9F4B
:143DEA00900C811C389F800C299F800C1A9F800C0B9F800C5A
:143DFE00199009900B2D1A2D292D382D79900C94491F5A9337
:143E12004A93BA92AA920895A990B9904991599108957A93AA
:143E26006A935A934A93BA92AA920895A990B9904991599156
:143E3A006991799108957A936A935A934A93DA92CA92BA92EB
:143E4E00AA920895A990B990C990D99049915991699179917B
:143E6200089500951095209530950F5F1F4F2F4F3F4F089576
:143E76008A929A92AA92BA92EA938A939A93AA93BA93898509
:143E8A009A85AB85BC850895B991A99199918991E991B9906C
:143E9E00A9909990899024960895EE27E02BE12BE22BE32BF7
:143EB2000895EE27E82BE92BEA2BEB2B08950F920990002001
:143EC60031F036952795179507950A94F8CF0F900895AA931A
:143EDA00BA93EA93FA930A92AF81B885ED81FE81003001074F
:143EEE0031F0C8950D92319601501040F7CF0990F991E991D8
:143F0200B991A99124960895E199FECF1FBB0EBBE09A0DB3AC
:143F16000895AA92E199FECF1FBB0EBB2DBBAFB6F894E29A7F
:143F2A00E19AAFBE00271127A99008950E94201FC22ED32E94
:143F3E00602F712FA884B9844C2D5D2D0BC0062F172F0E94EC
:143F5200851FE42FF52F00836F5F7F4F4F5F5F4F2A2C3B2C48
:143F6600822D932D0197A82EB92E222061F7332051F70C94AE
:143F7A00291F0E94201FC22ED32E602F712FA884B9844C2D08
:143F8E005D2D0BC0E42FF52F2081062F172F0E948C1F6F5F5C
:143FA2007F4F4F5F5F4F2A2C3B2C822D932D0197A82EB92E60
:0C3FB600222061F7332051F70C94291FE2
:00000001FF
